:100000001704010013040404B702010093048000E4
:10001000170901001309490393090000130A00009E
:1000200063D499061384020063569A0217030100F1
:10003000130343FD93132A00330E7300832A0E002B
:1000400063D68A0013840A0013090A00130A1A00EF
:100050006FF09FFD970E0100938ECEFC139F290039
:10006000B30FDF0123A08F0017030100130383F9EF
:1000700093132900330E730023205E00130A00003F
:0C008000938919006FF0DFF96F00000099
:020000021000EC
:10000000F9FFFFFF03000000F7FFFFFF08000000FB
:100010000F000000F0FFFFFF0000000003000000E1
:00000001FF
