:10000000170102001301010017050100130585FF08
:1000100097050100938505FF13064000EF00C0041B
:1000200013040500170501001305C5FE970501001F
:10003000938545FE13064000EF000003930405007E
:1000400097020100938202FE63D884001309A00086
:1000500023A022016F0000011304B00023A022019D
:100060006F0040006F000000130181FE232A110081
:1000700023288100232691002324210123223101FA
:10008000232041011304000093040000130905001C
:1000900093890500130A060063D24403032509006F
:1000A00083A50900EF00C003130405009384140026
:1000B00013094900938949006FF01FFE13050400DE
:1000C00083204101032401018324C100032981000D
:1000D00083294100032A0100130181016780000088
:1000E000130500006358B0003305A5009385F5FFA4
:0800F0006FF05FFF6780000064
:020000021000EC
:1000000003000000050000000100000009000000DE
:1000100001000000060000000200000003000000D4
:00000001FF
