:10000000170102001301010017050100130585FF08
:100010009705010093858500170601001306060168
:1000200093063000EF0000121304050017050100CD
:10003000130505FE97050100938545FE170601008F
:10004000130686FF93063000EF00C00F93040500EF
:1000500017050100130505FB97050100938585FA37
:1000600013063000EF00C004130905001705010056
:10007000130505FA97050100938585F913063000ED
:10008000EF00000393090500970201009382C2F973
:1000900063D884001309A00023A022016F0000018F
:1000A0001309B00023A022016F0040006F00000080
:1000B000130181FE232A11002328810023269100A9
:1000C00023242101232231012320410113040000B4
:1000D000930400001309050093890500130A060024
:1000E00063D244030325090083A50900EF00C00380
:1000F0003304A40093841400130949009389490030
:100100006FF01FFE13050400832041010324010149
:100110008324C1000329810083294100032A0100AF
:100120001301810167800000130400006358B000D0
:100130003304A4009385F5FF6FF05FFF13050400FF
:10014000678000009302000063D4D20203230500FD
:1001500083A30500330E73402320C6011305450019
:100160009385450013064600938212006FF0DFFD71
:0401700067800000A4
:020000021000EC
:1000000007000000050000000300000003000000DE
:1000100008000000040000000200000004000000CE
:0400200002000000DA
:00000001FF
