:100000001301C1FE2328110023268100232491001F
:1000100023222101232031011304050093840500CC
:10002000130900009309000063D29902032504001C
:1000300083250400EF00C00D930205003309590029
:1000400093891900130444006FF01FFE1305090083
:10005000EF004014832001010324C10083248100A8
:100060000329410083290100130141016780000039
:10007000130181FF23228100232091001304050036
:1000800093840500930505000324410083240100A7
:100090001301810067800000130181FE232A1100F3
:1000A00023288100232691002324210123223101CA
:1000B0002320410113040500938405001309060061
:1000C000130A000063562A0393090500938A04006B
:1000D00003A5090083A50A00EF00401123A0AA0090
:1000E000130A1A0013044400938444006FF09FFD28
:1000F00083204101032401018324C10003298100DD
:1001000083294100032A0100130181016780000057
:10011000130101FD2326810213040103232EA4FCF5
:10012000232CB4FC232604FE232404FE8327C4FDD1
:1001300063D60702930710002324F4FE8327C4FD2F
:10014000B307F040232EF4FC6F0040010327C4FEE8
:10015000832784FDB307F7002326F4FE8327C4FD1D
:100160001387F7FF232EE4FCE39207FE832784FE28
:10017000638807008327C4FEB307F0406F00800048
:100180008327C4FE138507000324C1021301010362
:040190006780000084
:10019400130101FD23261102232481021304010308
:1001A400232EA4FC232604FE6F0000018327C4FE33
:1001B400938717002326F4FE8325C4FE0325C4FE7B
:1001C400EFF0DFF4130705008327C4FDE340F7FED7
:1001D4008327C4FE138507008320C1020324810200
:0801E400130101036780000014
:1001EC00130101FE232E8100130401022326A4FE19
:1001FC002324B4FE832784FE0327C4FE23A0E70038
:10020C00130000000324C1011301010267800000E8
:10021C00130101FE232E1100232C81001304010273
:10022C0093055000B707010013850700EFF09FDC22
:10023C002326A4FE93055000B70701001385470140
:10024C00EFF05FDB2324A4FE0327C4FE832784FE88
:10025C00B3A7E70093F7F70FA303F4FE030774FEAD
:10026C00B70701009385870213050700EFF09FDFA6
:10027C00B7070100838787026380070213065000CB
:10028C00B70701009385C702B70701001385070064
:10029C00EFF0DFDF6F00C00113065000B70701005D
:1002AC009385C702B707010013854701EFF01FDEE6
:0402BC006F000000CF
:020000021000EC
:100000000500000002000000FDFFFFFF07000000E8
:0400100006000000E6
:1000140006000000FFFFFFFF0100000000000000D9
:0400240003000000D5
:040000030000021CDB
:00000001FF
